:020000040800F2
:10000000503C0020398C01089D010008438C0108F8
:100010009F010008A3010008A701000800000000DC
:10002000000000000000000000000000AB0100081C
:10003000AD010008000000004F8C0108FDBC000865
:10004000538C0108538C0108538C0108538C010810
:10005000538C0108538C0108538C0108538C010800
:10006000538C0108538C0108538C0108538C0108F0
:10007000538C0108538C0108538C0108538C0108E0
:10008000538C0108538C0108538C0108538C0108D0
:10009000538C0108538C0108538C0108AF010008F0
:1000A000538C0108538C0108538C0108538C0108B0
:1000B000538C0108C101000849A50108538C0108AF
:1000C000538C0108538C0108538C0108538C010890
:1000D000538C0108CFBD0008C9010008D1010008F8
:1000E000538C0108538C0108538C0108538C010870
:1000F000538C0108538C0108538C0108538C010860
:10010000538C0108538C0108538C0108538C01084F
:10011000D9010008E1010008538C0108538C010843
:10012000538C0108538C0108538C0108538C01082F
:10013000538C0108538C0108538C0108538C01081F
:10014000538C0108538C0108538C010845DE0008CC
:10015000538C0108538C0108538C0108E9010008F5
:10016000538C0108538C0108538C0108538C0108EF
:10017000538C0108538C0108538C0108538C0108DF
:10018000538C0108538C0108DFF80CD01AF0B6FE2E
:100190000048004795040008503C0020704700BF0D
:1001A000FEE700BFFEE700BFFEE77047704710B5EF
:1001B000802012F0DEF910B1802012F030FA10BD6C
:1001C00010B50FF08BFD10BD10B50BF049FF10BD41
:1001D00010B50CF04DF810BD10B50CF005F910BDC0
:1001E00010B50CF0C5F910BD10B50FF00AFD10BD2B
:1001F00010B518F033FD012018F03BFD10BD70B5AF
:10020000024600200AE0145C864B1D781B785B1CBC
:10021000844E3370844B5C55431CD8B28842F2DB69
:1002200070BD10B57F4800788049097888425BDD51
:100230007C4800787D490978401A3F281BDB002064
:100240007B4908703F207B49087000200BE077490C
:100250000A780978491C754B197073498A5C754B8B
:10026000411C5A54C8B23F28F1DB4022714900209A
:1002700019F07FFD9FE06E480078401C6C490870C3
:10028000084600786C4909788842F3D10020684913
:1002900008706448007865490978401A6549087013
:1002A000002015E05F490978604A1278891A814276
:1002B00008DD5E49097801445B4A525C5D4B411C94
:1002C0005A5403E000225B4B411C5A54411CC8B2F3
:1002D0003F28E7DB534800785449087040225549CD
:1002E000002019F046FD66E04E4800784F49097835
:1002F000884260DA4D480078C0F580704949097835
:1003000008443F281BDB0020494908703F20494929
:10031000087000200BE045490A780978491C434BD6
:10032000197041498A5C434B411C5A54C8B23F285A
:10033000F1DB40223F49002019F01BFD3BE03C4827
:100340000078401C3A490870084600783A49097814
:10035000884230D100203649087034480078404245
:1003600030490978084433490870002018E02F49C3
:100370000978C1F580712B4A12781144814209DD58
:100380002A4909780144C9B2274A525C294B411CC9
:100390005A5403E00022274B411C5A54411CC8B256
:1003A0003F28E4DB1F48007820490870402221499B
:1003B000002019F0DEFC10BD10B50446012C02D05F
:1003C000032C11D10EE059B923B1012B05D0022B1A
:1003D00004D100E000BF402010BD00BF00BF00BF3F
:1003E00000BF01E00120F7E700BF0020F4E72DE99E
:1003F000F0470646884614469946089F022E02D0CA
:10040000032E0CD10AE0012504E0605D01F093FAAF
:10041000681CC5B22078A842F7DA00E000BF00BF30
:10042000BDE8F087020000208005002001000020C8
:1004300003000020800600200000002019F08CBB83
:100440007047002070470020704700207047002050
:100450007047002070470020704700207047002040
:100460007047002070470020704700207047002030
:100470007047002070470020704719F094BB704708
:10048000002070470020704719F0D8B9704700006D
:1004900000BFFEE700F010F90349087000F0B0F863
:1004A00001E000F0D3F8FCE74912002010B57A48CB
:1004B0004068794908600BF0D0FB7749486077497C
:1004C000C8607548406874490968401A7249886074
:1004D00009F072F9012005F0C5FD012009F092F93B
:1004E00009F0EFF90EF09EFA6D49012006F072FF57
:1004F000012007F0D4F99FED6B0A03F0B7FB01F080
:1005000021FA07F0DAFA0BF0A8FB64490861084603
:100510000069C968401A6149486110BD10B59FED76
:10052000620A06F036FD022008F03EFF022002F0CB
:10053000D6FB10BD10B504F0D6FE59489FED5B0AFE
:1005400006F054FA9FED590A0FF07AFA10BD10B573
:100550000BF083FB514908600A2001F087FC0A2058
:1005600007F050FA0A2009F0BDF90A200EF07BFAD4
:100570009FED4F0A06F04EF89FED4D0A05F052FF31
:100580009FED4B0A01F0C2FC0A2009F037FC0BF08A
:1005900064FB42494860084640680968401A3F4980
:1005A000886010BD10B519F045FF142009F070F9EE
:1005B000142001F092FE142003F019FD3849142094
:1005C00007F069FE14200EF0D6FD142002F01DFF86
:1005D000142003F062F8142002F0DAFC0A201AF06A
:1005E00041F810BD10B5322008F0D8FF32200EF0CF
:1005F00058FB10BD10B54FF4FA7009F097FF10BD0D
:10060000002000BF1FE000EB40012A4A02EB8101FD
:1006100089884FF47A7292FBF1F100EB4002254B8E
:1006200003EB8202D18000EB40011A4602EB81010C
:10063000C988012905DA012100EB400203EB82029F
:10064000D180411CC8B20728DDD3704770B50024A3
:1006500000BF1EE00BF03CFB054604EB44001549CF
:1006600001EB80008068281A04EB4401114A02EB78
:100670008101C98888420AD304EB4400114601EB8A
:100680008000856004EB440152F821008047601C23
:10069000C4B2072CDED370BDE0090020EC090020B5
:1006A0004C0E00206F12833A6F12033B0AD7A33B14
:1006B0000AD7233C1000002010B54FF480600FF0E3
:1006C00041FB0BF098FA53214FF0FF3019F0E6FE92
:1006D00009F026FA0CF0FEFB03F0B3FC0FF00EF865
:1006E0000BF0B6F864200BF0E1FA0BF019F80BF000
:1006F000B5FF0CF035F80EF039FF2E494870087040
:10070000012088700CF06AFA2A49C870FFF770FD62
:1007100064200BF0CBFA28480BF02FFC26480BF096
:10072000FAFC25480BF0FFFD23480BF0BAFE4FF40E
:10073000E1300BF0F7FA09F052FD64200BF0B6FA45
:1007400006F094FDC8200BF0B1FA0DF036FF322010
:100750000BF0ACFA0EF04EFA05F07DFC00F03CF820
:10076000164991F81A01303119F038FD14A302220C
:10077000AF21052000F02FFE012010BD10B504466A
:1007800024B10121124812F063FA03E0012110485C
:1007900012F02DFA10BD10B504462CB14FF4806153
:1007A0000C4812F055FA04E04FF48061094812F049
:1007B0001EFA10BD7812002020A107004818002062
:1007C00053595320696E6974204F4B21000000007B
:1007D000000C0240000802400A21F848A0F89E10D0
:1007E0001421A0F8A4100A21A0F8AA101421A0F83E
:1007F000B0103221A0F8B610A0F8BC10A0F8C210BA
:10080000A0F8C810C821A0F8E610A0F8EC10A0F8D5
:10081000F8106421A0F810113221A0F8161100215F
:10082000A0F8F21000201BE000EB4002E3499031F9
:1008300001EB42014A8800EB4003E14901EB43012F
:100840004A8000EB4002DD49903101EB42018A8889
:1008500000EB4003DA4901EB43018A80411CC8B236
:100860001828E1DB704770B504460D46164604F0C3
:10087000010018B131462846FFF7C1FC04F004001E
:1008800018B1314628460BF0C5FE70BD30B52DEDD0
:10089000048B83B005460C46092D7CD008DC092D5D
:1008A0007AD2DFE805F07918B3FEFDFCFBFAF90017
:1008B000302D72D008DC0D2D70D00E2D6FD00F2D85
:1008C0006ED0202D68D163E3402D6AD0412D69D0D0
:1008D000FA2DF7D15DE3BB4890ED1C0ABDEEC00ACE
:1008E00010EE100A00B202909DF808102278501CF9
:1008F0002070B54881549DF809102278501C207052
:10090000B1488154AF4890ED1D0ABDEEC00A10EE0B
:10091000100A00B202909DF808102278501C207036
:10092000A94881549DF809102278501C2070A648CF
:100930008154A44890ED1E0ABDEEC00A10EE100AC4
:1009400000B202909DF808102278501C20709E483A
:1009500081549DF809102278501C20709A488154C7
:10096000984890ED160ABDEEC00A10EE100A00B2CB
:1009700002909DF808102278501C207092488154F3
:100980009DF809102278501C20708F4881548D48A2
:1009900090ED170A07E00DE2FCE24FE20BE231E2D4
:1009A000F5E259E266E2BDEEC00A10EE100A00B2AE
:1009B00002909DF808102278501C207082488154C3
:1009C0009DF809102278501C20707F4881547D4882
:1009D00090ED180ABDEEC00A10EE100A00B20290A7
:1009E0009DF808102278501C2070774881549DF89B
:1009F00009102278501C2070734881547148017886
:100A00002278501C207070488154C4E26F4840889E
:100A100002909DF808102278501C20706A4881547A
:100A20009DF809102278501C20706748815467484F
:100A3000808802909DF808102278501C207062482F
:100A400081549DF809102278501C20705E48815412
:100A50005E48C08802909DF808102278501C2070D3
:100A6000594881549DF809102278501C207056482E
:100A70008154574890ED030ABDEEC00A8DED010A7E
:100A80009DF804102278501C20704F4881549DF826
:100A900005102278501C05E04FE108E1E8E09EE0F7
:100AA0009CE033E02070484881549DF8061022787D
:100AB000501C2070444881549DF807102278501C27
:100AC0002070414881543F4890ED1F0ABDEEC00A96
:100AD00010EE100A00B202909DF808102278501C07
:100AE0002070394881549DF809102278501C2070DC
:100AF0003548815400212278501C2070324881549E
:100B00002278501C20703048815444E2314890EDE6
:100B1000370ADFED310A20EE200ABDEEC00A10EEE2
:100B2000100A00B202909DF808102278501C207024
:100B3000254881549DF809102278501C20702248C5
:100B40008154244890ED380ADFED230A20EE200A74
:100B5000BDEEC00A10EE100A00B202909DF8081017
:100B60002278501C2070184881549DF80910227872
:100B7000501C207014488154164890ED390ADFED5E
:100B8000160A20EE200ABDEEC00A10EE100A00B2CE
:100B900002909DF808102278501C20700A48815459
:100BA0009DF809102278501C2070074881540021BC
:100BB0002278501C207004488154ECE1040A002083
:100BC000240B002078320020B40B002030030020DA
:100BD000782F0020FC0000200000C842DBE1FE4826
:100BE00090ED050ABDEEC00A8DED010A9DF80410D6
:100BF0002278501C2070F94881549DF80510227805
:100C0000501C2070F54881549DF806102278501C25
:100C10002070F24881549DF807102278501C2070F3
:100C2000EE488154EE48408801909DF804102278E7
:100C3000501C2070E94881549DF805102278501C02
:100C40002070E64881549DF806102278501C2070D0
:100C5000E24881549DF807102278501C2070DF482C
:100C6000815400212278501C2070DC48815492E18C
:100C7000DC48C17D2278501C2070D8488154D94866
:100C8000C17A2278501C2070D448815400212278E7
:100C9000501C2070D14881542278501C2070CF48BD
:100CA00081542278501C2070CC48815473E1CE4886
:100CB00090ED030ABDEEC00A10EE100A00B20290D9
:100CC0009DF808102278501C2070C44881549DF86B
:100CD00009102278501C2070C0488154C24890ED01
:100CE000040ABDEEC00A10EE100A00B202909DF890
:100CF00008102278501C2070B84881549DF80910C3
:100D00002278501C2070B5488154B84890ED050AEF
:100D1000BDEEC00A10EE100A00B202909DF8081055
:100D20002278501C2070AD4881549DF8091022781B
:100D3000501C2070A94881542DE1002001909DF89D
:100D400004102278501C2070A44881549DF805108E
:100D50002278501C2070A14881549DF806102278FA
:100D6000501C20709D4881549DF807102278501C1B
:100D700020709A488154002001909DF80410227838
:100D8000501C2070954881549DF805102278501C05
:100D90002070924881549DF806102278501C2070D3
:100DA0008E4881549DF807102278501C20708B4883
:100DB0008154F0E0EFE08E4890ED000A5FED7A0A92
:100DC00020EE200ABDEEC00A10EE100A00B202901A
:100DD0009DF808102278501C2070804881549DF89E
:100DE00009102278501C20707C4881540021227800
:100DF000501C2070794881542278501C207077480C
:100E00008154C8E07B4881782278501C2070734858
:100E1000815400212278501C2070704881547548FC
:100E200041792278501C20706C4881547148C178F7
:100E30002278501C207069488154ACE0002008E002
:100E40006D490A5C2378591C21706449CA54411CBD
:100E5000C8B21728F4DB9EE0002008E067490A5C6E
:100E60002378591C21705D49CA54411CC8B214280A
:100E7000F4DB90E06248B0F9000019F0B9FE41ECF3
:100E8000190B9FED600B53EC102B19F029FE41EC70
:100E9000180B19F0BEFE00B202909DF808102278DF
:100EA000501C20704D4881549DF809102278501C28
:100EB00020704A48815455480088400000B2029092
:100EC0009DF808102278501C2070444881549DF8E9
:100ED00009102278501C2070404881544C48808A68
:100EE00002909DF808102278501C20703B488154D5
:100EF0009DF809102278501C2070384881544448CD
:100F0000C08A02909DF808102278501C2070334847
:100F100081549DF809102278501C20702F4881546C
:100F20003C48B0F9000002909DF808102278501C4F
:100F300020702A4881549DF809102278501C207096
:100F4000264881543448B0F9000002909DF80810FA
:100F50002278501C2070214881549DF80910227875
:100F6000501C20701D4881542C48B0F9000002909C
:100F70009DF808102278501C2070184881549DF864
:100F800009102278501C20701448815403E002E0BC
:100F900001E000E000BF00BF03B0BDEC048B30BD3A
:100FA0002DE9F84381460D46904600200090AA2185
:100FB0009DF80020501CC0B20090084881549DF854
:100FC0000010481CC0B20090044800F80180182DA1
:100FD00026DBBDE8F88300000C130020B40B0020D2
:100FE000BA02002049120020E0170020F41200206D
:100FF0005803002040120020D0300020FC31002097
:10100000EC0300200000000000000440EE0300207C
:101010005C0E0020F6030020F2030020F403002001
:10102000FC48465D9DF80010481CC0B20090FA488C
:10103000465400219DF80020501CC0B20090F64894
:10104000815469463046FFF721FC9DF80000001FDF
:10105000F149C87000240027002007E0EE49095C30
:101060002144CCB23919CFB2411CC8B29DF800104E
:101070008842F3DB9DF80010481CC0B20090E6489F
:1010800044549DF80010481CC0B20090E2484754F8
:101090009DF8002001464846FFF7E5FB00BFBDE88C
:1010A000F883F0B503460C4600212BE001EB41002C
:1010B00000EB8110D94D285C10BB01EB410000EB27
:1010C00081102844437001EB410000EB811028445B
:1010D000827000200AE0265C01EB410505EB8115DA
:1010E000CE4F3D44ED1C2E54451CE8B29042F2DB3D
:1010F000012001EB410505EB8115C84E7055F0BD8F
:10110000481CC1B20529D1DB0020F8E770B50024E6
:1011100025E004EB440000EB8410C049085CE0B11A
:1011200004EB440303EB84130D462B449A7804EB41
:10113000440303EB84132B44D91C04EB440303EB5B
:1011400084132B445878FFF78EFB002004EB4401F6
:1011500001EB84112A46505470BD601CC4B2052CAA
:10116000D7DB00BFF8E770B50446012C04D0022C91
:1011700014D0042C37D121E001EB4106A84D05EB3A
:101180004605AA1C01EB4106A54D05EB4605281DA9
:1011900001EB4106A24D05EB460325E001EB4105BD
:1011A000A04E06EB4505AA1C01EB410506EB4505E3
:1011B000281D01EB410506EB450315E001EB410657
:1011C000974D903D05EB4605AA1C01EB4106944D59
:1011D000903D05EB4605281D01EB4106904D903DE5
:1011E00005EB460300E070BD00BF182900DBFAE7FD
:1011F000158855B105881688B54203DA05886D1C37
:10120000058002E001251D70058000BFEBE72DE998
:10121000F04107460C46012F04D0022F09D0042FBD
:1012200016D10DE0AF2604EB44017D4800EB4105EB
:1012300011E0FF2604EB44007A4901EB40050AE087
:10124000AF2604EB44017648903800EB410502E0FC
:101250000020BDE8F08100BF182C01DB0020F8E77A
:10126000287840B100202870324621463846FFF7E2
:1012700097FE0120EDE70020EBE72DE9F05F8246C5
:101280000E4617469846DDF828B00024AA222146CB
:10129000641C654842542146641C46540022214681
:1012A000641C42542146641C42542146641C475429
:1012B0002146641C00F801802146641C00F801B03E
:1012C000201F5949C87000254FF00009002009E08F
:1012D0005549095C2944CDB209EB050101F0FF092C
:1012E000411CC8B2A042F3DB2046611CCCB24E497F
:1012F0000D542046611CCCB24B4901F800902246A7
:101300005046FFF7CEFEBDE8F09F2DE9F74181B0D2
:1013100080460E4600200090BDF80C0009F03FF911
:1013200000900024AA222146641C3F4842542146D2
:10133000641C4654E2222146641C42540022214689
:10134000641C42549DF80C202146641C42549DF8B4
:101350000D202146641C42549DF800202146641C47
:1013600042549DF801202146601CC4B22E484254CC
:101370009DF802202046611CCCB22B490A549DF8EE
:1013800003202046611CCCB227490A54201FC87094
:1013900000250027002007E02349095C2944CDB23D
:1013A0007919CFB2411CC8B2A042F5DB2046611CBE
:1013B000CCB21D490D542046611CCCB21A490F54C1
:1013C00022464046FFF76DFEBDE8FF8100BF00BF2B
:1013D00000BF00BF70472DE9F05F83468846914605
:1013E0001E460024AA222146641C0F48425421466E
:1013F000641C00F80180A0222146641C4254002293
:101400002146641C42542146641C00F80190924617
:1014100019E0000008B10108B40B0020F40B002013
:10142000240B0020040A0020430D00205046411CDC
:1014300001F0FF0A325C2046611CCCB2FD490A541F
:10144000322C00DD03E016F80A000028EED100BFC0
:10145000201FF849C87000250027002007E0F54943
:10146000095C2944CDB27919CFB2411CC8B2A0425F
:10147000F5DB2046611CCCB2EE490D542046611CC0
:10148000CCB2EC490F5422465846FFF70AFEBDE89D
:10149000F09F2DE9F84380460C46154600260027AC
:1014A000E178A81F814201D0BDE8F883002006E062
:1014B000215C3144CEB2B919CFB2411CC8B2A91EC9
:1014C0008142F5DC601910F8020CB04204D16019B9
:1014D00010F8010CB84200D0E6E7A078402876D09A
:1014E000A0784128FBD0A0783028F8D0A078322806
:1014F000F5D0A0783328F2D0A0783428EFD0A078A7
:101500000D28ECD0A078E0287AD12079012804D0E9
:1015100010285DD0112874D190E0607998BBA07933
:10152000012853D0A079022850D0A07903284DD0AB
:10153000A07904284AD0A079052847D0A07910289E
:1015400044D0A079612841D0A07962283ED0A0790A
:10155000AA2804D108F0A0FE02F068FD36E0A079C8
:10156000AB2805D1012008F030FF02F05FFD2DE02F
:10157000A079AC282AD108F08FFE022008F025FFC0
:1015800002F054FD22E0FFE76079012800D11DE060
:10159000607930281AD1A07901280AD1A648C07AEA
:1015A000A0B90120A54988700020A54981F81A0139
:1015B0000CE0A079022809D19F48C07A30B90220F6
:1015C000A049087000209E4981F81B0138E05FE0C7
:1015D000607958BBA07907281FD007DC072823D2E1
:1015E000DFE800F02215161718191A00602818D025
:1015F00008DC082812D0092811D00A2814D10FE0DD
:1016000027E01CE061280DD062280DD10BE00CE032
:101610000BE00AE009E008E007E006E005E004E08E
:1016200003E002E001E000E000BF06E0607901288D
:1016300003D06079022800D000BF01E000E000BFC5
:1016400000BF0097A2783346AF214046FFF715FE52
:101650001EE0A078E0B1A078E12805D1A288AF21F2
:101660004046FFF752FE13E0A078E2280CD1D4F8F0
:101670000610A08809F0E1FA0097A2783346AF215E
:101680004046FFF7FAFD03E0A078602800D000BFD5
:1016900000BF09E770B504460D4604EB440000EBBB
:1016A00084106949084490F84200072875D2DFE8A1
:1016B00000F00416374875D7FC00AA2D0ED1012082
:1016C00004EB440101EB84115F4A114481F84200AC
:1016D00004EB440000EB841011460D5422E1052D6B
:1016E00003D0FF2D01D0052D10D1022004EB4401C1
:1016F00001EB8411544A114481F8420004EB440088
:1017000000EB841011460844457008E0002004EB0B
:10171000440101EB84114C4A114481F8420001E17B
:10172000032004EB440101EB8411474A114481F882
:10173000420004EB440000EB84101146084485701D
:10174000F0E03B2D1FDA042004EB440101EB84118F
:101750003D4A114481F8420004EB440000EB841040
:1017600011460844C57004EB440000EB84100844A3
:1017700080F84050002004EB440101EB8411114437
:1017800081F8410008E0002004EB440101EB8411E2
:101790002D4A114481F84200C4E0B9E004EB440052
:1017A00000EB84102849084490F8400000284DDDE3
:1017B00004EB440000EB8410084490F84000401E05
:1017C00004EB440101EB84111F4A114481F84000ED
:1017D00004EB440000EB84101146084490F84100EB
:1017E00004EB440101EB8411114491F84110491CB0
:1017F00004EB440202EB8412134B1A4482F84110AA
:10180000001D04EB440101EB84111A4611440D54F0
:1018100004EB440000EB84101146084490F84000AB
:10182000E8B9052004EB440101EB8411114481F86F
:10183000420014E0430D0020491200202005002042
:101840004818002030030020830D0020002004EB06
:10185000440101EB84114F4A114481F8420061E0D8
:10186000062004EB440101EB84114A4A114481F83B
:10187000420004EB440000EB84101146084490F849
:10188000410004EB440101EB8411114491F8411033
:10189000491C04EB440202EB84123E4B1A4482F8CA
:1018A0004110001D04EB440100E005E001EB841150
:1018B0001A4611440D5435E0002004EB440101EBBD
:1018C0008411344A114481F8420004EB440000EBD7
:1018D00084101146014404EB440000EB84101044D2
:1018E00090F84100001D0D5404EB440000EB8410FF
:1018F0001146084490F84100401DC6B204EB440074
:1019000000EB8410811832462046FFF7C2FD09E043
:10191000002004EB440101EB84111E4A114481F8BC
:10192000420000BF00BF70BD10B504462146042030
:10193000FFF7B0FE10BD10B5044621460120FFF7A9
:10194000A9FE10BD10B5FFF7E1FB002409E0214618
:101950000420FFF708FC21460120FFF704FC601C6F
:10196000C4B2182CF3DB002405E021460420FFF765
:101970004EFC601CC4B2182CF7DB002405E02146A5
:101980000120FFF744FC601CC4B2182CF7DBFEF703
:1019900048FC10BD830D002070B5DDE904452BB176
:1019A0000E882EB10E8806440E8001E001260E80BE
:1019B0000E88964202DB2C7000260E8070BD7CB52E
:1019C0000546FE480079022824DCFD48407808BB23
:1019D000FC484078B8B1FB480078A0B1F948C0781D
:1019E00050B1F648407818B10020F449487214E02C
:1019F0000120F249487210E00120F34948720220A8
:101A0000EE49487209E00120EF49C8710320EB4913
:101A1000487202E00420E9494872E848C07A002888
:101A200040D1E648807A002849D0E448407A50B94D
:101A3000E248807AE149C872E4A30222AF2105207E
:101A4000FFF7C9FC3BE00020DC4988720846407A79
:101A5000012806D1E0A30222AF210520FFF7BBFC3D
:101A60002DE0D648407A022806D1DBA30222AF211E
:101A70000520FFF7B0FC22E0D048407A032806D1C9
:101A8000D5A30222AF210520FFF7A5FC17E0CB4824
:101A9000407A042813D1D4A30222AF210520FFF7F6
:101AA0009AFC0CE0C548807A28B9D5A30222AF2160
:101AB0000520FFF790FCC148807AC049C872D5481C
:101AC000B0F9040010F5967F7FDAD248B0F906002D
:101AD000002803DDCF48B0F9060003E0CD48B0F997
:101AE0000600404200EE100AB8EEC00AF3EE0E0AFD
:101AF000B4EEE00AF1EE10FA14DDC648B0F90200C7
:101B000000EE100AB8EEC00AFBEE0E0AB4EEE00AD0
:101B1000F1EE10FA06D2A948407B30B90120A7495E
:101B2000487302E00020A5494873BA48B0F90200A2
:101B300010F5967F12DAB748B0F90000B0F5967F3D
:101B40000CDDB448B0F9060010F5967F06DA0120E6
:101B5000B14908700220994948731BE0AD48B0F9BB
:101B6000020010F5967F12DAAA48B0F9000010F5CD
:101B7000967F0CDAA748B0F90600B0F5967F06DD2F
:101B80000120A549087002208C49487302E000201A
:101B9000A149087000248948C07A20B100BF6420A0
:101BA0009E49088003E00224FA209C49088083486B
:101BB0000A30CDE90040984803789848028898494F
:101BC0002846FFF7E9FE09E0FFE700207B4948735C
:101BD0000846807A022801D1012088728D48B0F928
:101BE000040010F5AF7F03DD00207449087302E0A4
:101BF0000120724908737CBD002005E00021854A60
:101C000022F81010411CC8B20428F7DB8148B0F953
:101C10000400002802DD00207E49888000207D49E4
:101C200008804880C8806548C07A48B17D484079BE
:101C300018B903206149C87402E001205F49887126
:101C400001206149C8727047F0B505AC70CC5CB139
:101C500000270F80CF788FB98F7817B18F787F1CCE
:101C60008F700127CF7009E00027CF700F880744DD
:101C70000F800F889F4201DD01278F708F78974278
:101C800002DD357000278F70F0BD1EB504464B484D
:101C9000C07A00287DD14948007B002872D05D4879
:101CA000B0F9020010F5AF7F17DA5A48B0F900001A
:101CB000B0F5AF7F11DD5748B0F9040010F5AF7FE4
:101CC0000BDA5448B0F90600B0F5AF7F05DD01200E
:101CD000554908705549087004E0002052490870C1
:101CE000524908704B48B0F90200B0F5AF7F15DDDE
:101CF0004848B0F90000B0F5AF7F0FDD4548B0F9B6
:101D0000040010F5AF7F09DA4248B0F9060010F57B
:101D1000AF7F03DA01204649087002E00020444901
:101D200008703C48B0F90200B0F5AF7F15DD3948C6
:101D3000B0F90000B0F5AF7F0FDD3648B0F9040010
:101D400010F5AF7F09DA3348B0F90600B0F5AF7F80
:101D500003DD01203749087002E000203549087092
:101D60002C48B0F90200B0F5AF7F03DD0120324905
:101D7000087007E02748B0F90200322802DA002094
:101D80002D4908702D480121CDE90010274803781E
:101D900000E06AE04FF47A7229492046FFF7FCFD23
:101DA00028480121CDE900101F4803784FF47A72CA
:101DB00025492046FFF7F0FD244849E0491200205C
:101DC000D20300207812002038180020556E6C6F66
:101DD000636B204F4B210000556E6C6F636B204688
:101DE00061696C2100000000506F776572204C6FB4
:101DF000772C556E6C6F636B204661696C21000017
:101E00004643204F7574707574204C6F636B656426
:101E1000212000004C0E00206A0000206C000020F1
:101E20006800002040120020790000207800002087
:101E30007A0000207B0000207C0000202305002089
:101E40006E0000206013002070000020300300208E
:101E50000121274A12784FF47A73CDE900210290CC
:101E6000052224492046FFF7EFFE1EBD10B50446AB
:101E70002148007890B3002021E0204931F810106B
:101E8000A1F2DC5109B21E4A22F81010114631F9B4
:101E9000101011F5FA7F01DC1A490BE0184931F9ED
:101EA0001010B1F5FA7F02DD4FF4FA7102E0144927
:101EB00031F91010124A22F81010411CC8B208283B
:101EC000DBDB2046FFF77BFD2046FFF7DEFE0B48FD
:101ED0003A3890F8390010B1FFF78EFE06E00A4854
:101EE000C07A012802D100200749C87210BD000045
:101EF0007C0000207400002049120020FC310020EA
:101F00004C0E00200CFEFFFF3818002008B5C94811
:101F1000D0ED000A9FEDC81AF4EEC10AF1EE10FAF6
:101F20000BD2D0ED000AB7EE001A70EE810AC0EDB8
:101F3000000A0120C149887002E00020BF49887072
:101F4000BC48D0ED010A9FEDBC1AF4EEC10AF1EED7
:101F500010FA0BD2D0ED010AB7EE001A70EE810A2A
:101F6000C0ED010A01208DF8000002E000208DF88C
:101F70000000B048D0ED020A9FEDAF1AF4EEC10A9E
:101F8000F1EE10FA0BD2D0ED020AB7EE001A70EEA5
:101F9000810AC0ED020A01208DF8010002E0002054
:101FA0008DF801009DF8000030B19DF8010018B1D6
:101FB0000120A249C87002E00020A049C87008BDF5
:101FC00030B500220024C5788B1F9D4200D030BD63
:101FD000002306E0C55C1544EAB2A518ECB25D1C0E
:101FE000EBB28D1E9D42F5DC431813F8023C934280
:101FF00004D1431813F8013CA34200D0E7E78378EB
:10200000512B38D103795BB943798C4D6B7183794E
:102010005BB2AB71C3795BB2EB71037A2B7183E076
:102020000379012B12D14379844D2B72C3886B81C4
:102030000389AB81837A2B719FED810A7D4B83ED00
:10204000010A2B461B785B1C2B706DE00379022B79
:102050006AD14379794DAB73C3882B8203896B8234
:102060004389AB828389EB82C3892B83038A6B8389
:10207000837C2B7158E08378342B0DD1D0F8073056
:102080006E4DEB619FED6E0A6A4B83ED020A2B46A3
:102090005B785B1C6B7047E08378012B0DD18388E4
:1020A000664D2B86C3886B860389AB864389EB8696
:1020B00083892B87C3896B8736E08378042B33D1E0
:1020C000B0F9043000EE103AB8EEC00ADFED5D0A58
:1020D00020EE200A594B83ED080AB0F9063000EED5
:1020E000103AB8EEC00ADFED570A20EE200A534B33
:1020F00083ED090AB0F9083000EE103AB8EEC00AD4
:10210000DFED500A20EE200A4C4B83ED0A0AB0F9AD
:102110000A3000EE103AB8EEC00ADFED4A0A20EEAF
:10212000200A464B83ED0B0A00BF50E710B504466A
:102130004548007838B9AA2C05D1012042490870D9
:102140004248047074E040480078012809D1052C09
:1021500001D0FF2C05D102203B4908703B48447058
:1021600066E039480078022805D103203649087016
:10217000364884705CE03448007803280CD1FA2C8F
:102180000ADA0420304908703048C47030480470BE
:102190000020304908704BE02B480078042819D102
:1021A0002B480078002815DD29480078401E284972
:1021B00008702848007827490978491C254A117079
:1021C000001D22490C542248007868BB05201E4996
:1021D00008702DE01C48007805280DD106201A490A
:1021E00008701C4800781B490978491C194A11706D
:1021F000001D16490C541BE013480078062814D122
:1022000000201149087013480078001D0F490C5434
:102210009FED0B0A074880ED000A0E480078401D2C
:10222000C1B20A48FFF7CCFE02E000200649087060
:1022300010BD0000CC0E00200000FA435C0E002010
:102240000000000017B7D1387F000020980E002052
:102250007D0000207E0000200179C27801EB022180
:10226000FE4A11808179427901EB0221FC4A1180FA
:102270008178FC4A517070470020FB49087000BF0C
:1022800028E0032818DA9FEDF90AF6492C3101EB12
:10229000800181ED000A9FEDF50AF249383101EB2A
:1022A000800181ED000A9FEDF10AEE49443101EB16
:1022B000800181ED000A03E00021EA4AA2F85010F3
:1022C0000022E849143141F82020103941F820203B
:1022D000411CC8B20428D4DB704710B50446E1485D
:1022E0004178807881421FD0FFF7C6FFE04890F820
:1022F000380068B9DF48C07D012809D1DE48807800
:1023000010B9DD48407918B10120D64908700BE0BA
:102310000020D4490870D9A30222AF210520FFF77D
:102320005AF80020CF494870CE48407806286ED031
:1023300006DC06286CD2DFE800F06B10416CCEFDA5
:1023400009287DD004DC07287BD0082860D1ADE2C5
:102350000A2877D0A028F9D14AE0C248007860B3B3
:10236000C448C07C70B9C048007830BB0120BE4969
:102370000870C6A30222AF210520FFF72CF804F055
:10238000C0FF1AE0BB48C07C022809D1C2A30222C8
:10239000AF210520FFF71FF80020B24948700CE07C
:1023A000B448C07C022808DDBFA30222AF2105206B
:1023B000FFF711F80020AB4948708EE3AD48C07CB0
:1023C000022808D1BBA30222AF210520FFF703F8A2
:1023D00004F0A6FF0BE0A748C07C40B9B8A30222D6
:1023E000AF210520FEF7F7FF00209E49487074E3F7
:1023F000A048C07A50B1B5A30222AF210520FEF754
:10240000EAFF00209B4988729649487065E38FE196
:1024100062E39348008800EE100AB8EE400A914843
:1024200080ED0D0A8E48008898B38C4800884FF4E0
:102430007A71484300EE100AF8EEC00A884802E0BC
:1024400093E2D5E1ECE20088002802DC9FED870AE8
:1024500017E0A34890ED011A8148008800EE100AA9
:10246000B8EE400AB4EEC01AF1EE10FA03D29C485E
:1024700090ED010A05E07A48008800EE100AB8EEF7
:10248000400A80EE801ABCEEC10A764880ED070A49
:1024900003E0FFE700217348C1617248C06830B9AA
:1024A00090A30222AF210520FEF795FF0DE06D48B5
:1024B000C169C068814208D28CA30222AF210520E5
:1024C000FEF789FF0020674948706648C068011917
:1024D0006448C16001E362480088404200EE100A8F
:1024E000B8EEC00A5F4880ED0D0A5D480088A8B3C9
:1024F0005A4800884FF47A71484300EE100AF8EE0B
:10250000C00A57480088002802DC9FED580A1DE0E9
:10251000734890ED020AB1EE401A5148008800EE6F
:10252000100AB8EE400AB4EEC01AF1EE10FA07D263
:102530006B4800E034E090ED020AB1EE400A05E09D
:102540004748008800EE100AB8EE400A80EE801A74
:10255000BCEEC10A434880ED070A03E0FFE7002113
:102560004048C1613F48C06830B963A30222AF212F
:102570000520FEF730FF0DE03A48C169C06881428E
:1025800008D260A30222AF210520FEF724FF00201D
:10259000344948703348C06801193248C1609CE230
:1025A0002F48008800EE100AB8EE400A2D4880ED52
:1025B0000B0A2B48008878B3284800884FF47A71BA
:1025C000484300EE100AF8EEC00A254800880028AB
:1025D00002DC9FED260A17E0414890ED001A2048E2
:1025E000008800EE100AB8EE400AB4EEC01AF1EE10
:1025F00010FA03D23A4890ED000A05E01848008826
:1026000000EE100AB8EE400A80EE801ABCEEC10A55
:10261000144880ED050A03E0FFE7002011494861F6
:102620001048406830B93AA30222AF210520FEF7D6
:10263000D2FE0EE00B4840690A494968884208D238
:1026400036A30222AF210520FEF7C5FE0020054972
:102650004870044840682044024967E08000002038
:1026600082000020D80E002084000020000000001E
:10267000C23100204912002040120020464320535E
:1026800074617465204572726F72210054616B65CC
:10269000206F66662100000054616B65206F6666DE
:1026A000204F4B2100000000434D44204572726FC3
:1026B000722100004C616E64696E672100000000A9
:1026C0004C616E64696E67204F4B2100456D6572E9
:1026D00067656E63792073746F70204F4B21000023
:1026E00068120020476F207570210000476F207529
:1026F00070204F4B21000000476F20646F776E21E0
:1027000000000000476F20646F776E204F4B210060
:10271000476F20616865616421000000476F206198
:1027200068656164204F4B21000000004860D4E1DF
:10273000FC480088404200EE100AB8EEC00AFA4891
:1027400080ED0B0AF748008878B3F84800884FF40A
:102750007A71484300EE100AF8EEC00AF14800888A
:10276000002802DC1FED3F0A17E0F14890ED001A47
:10277000EC48008800EE100AB8EE400AB4EEC01A29
:10278000F1EE10FA03D2EA4890ED000A05E0E548C0
:10279000008800EE100AB8EE400A80EE801ABCEE07
:1027A000C10AE14880ED050A03E0FFE70020DE49A9
:1027B0004861DD48406830B9DEA30222AF21052020
:1027C000FEF709FE0EE0D8484069D74949688842BB
:1027D00008D2DBA30222AF210520FEF7FCFD00207A
:1027E000D1494870D04840682044CF49486074E1DE
:1027F000CC48008800EE100AB8EE400ACA4880EDC6
:102800000C0AC848008878B3C84800884FF47A7129
:10281000484300EE100AF8EEC00AC24800880028BB
:1028200002DC1FED6E0A17E0C14890ED001ABD48AA
:10283000008800EE100AB8EE400AB4EEC01AF1EEBD
:1028400010FA03D2BA4890ED000A05E0B5480088B6
:1028500000EE100AB8EE400A80EE801ABCEEC10A03
:10286000B14880ED060A03E0FFE70021AE48816130
:10287000AD48806830B9B5A30222AF210520FEF72C
:10288000AAFD0DE0A84881698068814208D2B2A300
:102890000222AF210520FEF79EFD0020A2494870CC
:1028A000A14880680119A048816016E19D48008810
:1028B000404200EE100AB8EEC00A9B4880ED0C0AB8
:1028C0009848008878B3994800884FF47A71484353
:1028D00000EE100AF8EEC00A92480088002802DCD8
:1028E0001FED9E0A17E0924890ED001A8D4800886F
:1028F00000EE100AB8EE400AB4EEC01AF1EE10FA7B
:1029000003D28B4890ED000A05E08648008800EE6F
:10291000100AB8EE400A80EE801ABCEEC10A824866
:1029200080ED060A03E0FFE700217F4881617E48D1
:10293000806830B98BA30222AF210520FEF74BFD42
:102940000DE0794881698068814208D288A302221B
:10295000AF210520FEF73FFD002073494870724803
:102960008068011970488160B7E06E48008800B245
:102970006D49A1F850006B48008878B36B48008817
:102980004FF47A71484300EE100AF8EEC00A654829
:102990000088002802DC1FEDCB0A17E0644890EDA8
:1029A000031A6048008800EE100AB8EE400AB4EE40
:1029B000C01AF1EE10FA03D25D4890ED030A05E06B
:1029C0005848008800EE100AB8EE400A80EE801ADF
:1029D000BCEEC10A544880ED080A03E0FFE700217D
:1029E000514801625048006930B965A30222AF2105
:1029F0000520FEF7F0FC0DE04B48016A00698142BA
:102A000008D262A30222AF210520FEF7E4FC0020D9
:102A100045494870444800690119434801615CE038
:102A200040480088404200B23F49A1F850003D486C
:102A3000008878B33D4800884FF47A71484300EE2F
:102A4000100AF8EEC00A37480088002802DC1FEDA3
:102A5000F90A17E0364890ED031A3248008800EE74
:102A6000100AB8EE400AB4EEC01AF1EE10FA03D222
:102A70002F4890ED030A05E02A48008800EE100A6E
:102A8000B8EE400A80EE801ABCEEC10A264880EDFE
:102A9000080A03E0FFE70021234801622248006999
:102AA00030B93EA30222AF210520FEF794FC0DE0D1
:102AB0001D48016A0069814208D23BA30222AF216E
:102AC0000520FEF788FC0020174948701648006969
:102AD00001191548016100E000BF00BF12484078AD
:102AE00008B9FFF7C9FB1048417881703248C07AB5
:102AF000B0B10D4A3832A2F1140101F1080001F021
:102B0000EAFE094A44322D49A2F10C0001F0C4FE4C
:102B1000054890ED0D0A80ED100A80ED130A5BE088
:102B20004EE0000082000020D80E0020800000202F
:102B300068120020476F206261636B210000000073
:102B4000476F206261636B204F4B2100476F206C01
:102B50006566742100000000476F206C6566742074
:102B60004F4B2100476F2072696768742100000095
:102B7000476F207269676874204F4B210000000086
:102B80005475726E206C6566742100005475726E07
:102B9000206C656674204F4B210000005475726EE6
:102BA00020726967687421005475726E20726967BB
:102BB0006874204F4B210000491200203001002092
:102BC000064890ED0D0A064880ED090A034890ED8D
:102BD0000E0A034880ED0A0A10BD0000FC00002028
:102BE000D80E0020AA49097839B9AA2805D10121AF
:102BF000A74A1170A749087070E0A5490978012912
:102C000007D1302805D10221A14A1170A14948708D
:102C100064E09F490978022905D103219C4A11707B
:102C20009C4988705AE09A490978032905D1042102
:102C3000974A11709749C87050E09549097804295E
:102C40000AD10521924A117092490871924908707F
:102C50000521924A117041E08D490978052917D163
:102C60008D490978002913DD8B490978491E8A4A64
:102C700011708A490A780978491C884B197085496E
:102C800088548549097829BB0621814A117025E0BD
:102C90007F49097806291ED100217D4A11707D499E
:102CA0007E4A127888547E49097899B9002105E056
:102CB000784A525C7B4B5A544A1CD1B2774A1278FC
:102CC0009142F5DD75490978491C774A1170012157
:102CD000734A117002E000216D4A1170704701467D
:102CE0006F48007800287DD000206D4B18700022BE
:102CF00000BF05E06B4B1B5C1344DAB2431CD8B237
:102D0000694B1B785B1E8342F4DC6648664B1B787C
:102D1000184410F8010C904200D070476148C07808
:102D2000312875D05F48C078322871D15D48C079AC
:102D30005C4B9B7940EA032000B200EE100AB8EE2B
:102D4000C00AB1EE400ADFED590A80EE201A584859
:102D500080ED041A5348407A524B1B7A40EA032014
:102D600000B200EE100AB8EEC00ADFED500A80EEA5
:102D7000201A4F4880ED031A4A48C07A494B9B7A83
:102D800040EA032000B200EE100AB8EEC00ADFED00
:102D9000470A80EE201A464880ED051A4148407BDC
:102DA000404B1B7B40EA032000B200EE100AB8EE55
:102DB000C00AB1EE400ADFED3D0A80EE201A3C4821
:102DC00080ED071A3748C07B364B9B7B40EA0320D7
:102DD00000B200EE100AB8EEC00ADFED340A80EE51
:102DE000201A00E018E0324880ED061A2D48407C99
:102DF0002C4B1B7C40EA032000B200EE100AB8EE18
:102E0000C00ADFED2A0A80EE201A294880ED081A50
:102E10000020284B188000BF26480088B0F57A7F34
:102E200008DA244800880844224A10800120204AF9
:102E3000507002E000201E4A507000BF6DE710B5D0
:102E400004461D48C07A78B90020194908701B480B
:102E500090ED0D0A084680ED010A184890ED0E0A23
:102E6000084680ED020A02E0012011490870104A6C
:102E70002432A2F1200101F1080001F02CFD0C4ADE
:102E80003032A2F12C0101F1140001F024FD10BD3B
:102E90008B000020681000208A0000208C00002099
:102EA00087000020680F0020860000200000C84234
:102EB0002C0F00208800002049120020FC00002078
:102EC00010B52DED028BF0EE408AB0EE608A2A48F4
:102ED000C0ED008A80ED018A02469FED280A011D9F
:102EE00002F0F9FDBDEC028B10BD234880ED060A0F
:102EF000D0ED060A9FED221AF4EEC10AF1EE10FAA7
:102F000002D8DFED1F0A0FE01B48D0ED060A9FED47
:102F10001D1AF4EEC10AF1EE10FA02DDDFED190A16
:102F200002E01548D0ED060A1348C0ED060A7047C6
:102F3000114880ED070AD0ED070A9FED131AF4EE51
:102F4000C10AF1EE10FA02D8DFED0F0A0FE00A48CD
:102F5000D0ED070A9FED0D1AF4EEC10AF1EE10FA5A
:102F600002DDDFED0A0A02E00348D0ED070A02485D
:102F7000C0ED070A704700006811002000004843B8
:102F8000000016C3000016430000C8C20000C8427B
:102F900001B534488088282802DD01203249487074
:102FA0003248C07A10B900202F49487030488078E4
:102FB00068B12F48C07950B12B48407838B12B48C0
:102FC000007E032803D101202749087002E0002079
:102FD0002549087027488078012813D1002022490C
:102FE000887008460178684600F02AFA224890ED79
:102FF0000C1AF0EE410A90ED0B1AB0EE410AFFF701
:103000005FFF2EE01B48807802281AD10020164965
:10301000887008460178684600F0B5FC174890EDC6
:10302000061AF0EE410A90ED051AB0EE410AFFF7DC
:1030300047FF1248D0ED070AB0EE600AFFF778FFAD
:103040000FE00948807860B9012007498870DFEDFA
:103050000C0A9FED0B0AFFF733FF9FED090AFFF7FC
:1030600067FF08BDBA0200208D0000204912002031
:10307000401200200831002088110020CC110020CF
:10308000000000000CB5B1F5FA7F06DA00EE101A68
:10309000B8EEC00AFD4A82ED000AFD4A92ED050A2B
:1030A000FC4A82ED000AFA4A92ED060AF94A82EDDC
:1030B000010AF64A92ED000ADFEDF70A20EE200A37
:1030C000F34AD2ED030A20EE200A82ED050AEF4A08
:1030D00092ED000ADFEDF00A20EE200AEC4AD2ED74
:1030E000040A20EE200A82ED060A02784FF47A7371
:1030F00093FBF2F200EE102AB8EEC00AE44AD2EDD9
:10310000050AE44A92ED001A70EEC10A20EE200A88
:103110008DED000A027893FBF2F200EE102AB8EE71
:10312000C00ADB4AD2ED060ADA4A92ED011A70EEC5
:10313000C10A20EE200A8DED010A9DED000AD44A55
:10314000D2ED070A70EE600A92ED070A9FEDD31ADE
:1031500001EE200A82ED070A9DED010AD2ED080A70
:1031600070EE600A92ED080A9FEDCC1A01EE200A7B
:1031700082ED080AD2ED070AC94AB2F9002000EE32
:10318000102AB8EEC00A30EE800AC14A82ED090A60
:10319000D2ED080AC24AB2F9022000EE102AB8EEB7
:1031A000C00A30EE800ABA4A82ED0A0A0CBD0178E4
:1031B00001EE901AF8EE611A9FEDBA2A61EE821ABA
:1031C000B0EE611AB849497929B10021B04A1170AD
:1031D000B64A11800EE0B5490988B1F57A7F06DA62
:1031E0000178B24A12881144B04A118002E00121EC
:1031F000A74A1170AC490989A54A5180AA49C988D2
:1032000049420AB2A2498A80A7494979002962D075
:10321000DFEDA71A60EEA11AFDEEE11A11EE901A89
:1032200009B29B4AD180DFEDA21A60EE211AFDEEB1
:10323000E11A11EE901A0AB295490A81B1F9061005
:1032400011F13C0F02DC6FF03B0109E09049B1F94C
:1032500006103C2901DD3C2102E08D49B1F9061040
:103260008B4AD1801146B1F9081011F1500F02DCE0
:103270006FF04F0109E08649B1F90810502901DDCE
:10328000502102E08249B1F90810814A118189492F
:10329000C97909B1012100E00021012907D186493E
:1032A000898A7F4A11808449C98A518017E08349FD
:1032B000D1ED0C1AFDEEE11A11EE901A09B2784A1E
:1032C00011807E49D1ED0D1AFDEEE11A11EE901A32
:1032D00009B2518003E00021714A118051806C498C
:1032E0000978E9BB6A49B1F90210694AB2F90620C6
:1032F000891A01EE901AF8EEE11A714991ED002A4F
:1033000031EEC22AD1ED001ADFED642A42EE821AB4
:10331000C1ED001A5E49B1F90420B1F90810511A43
:1033200001EE901AF8EEE11A654991ED012A31EEAD
:10333000C22AD1ED011ADFED592A42EE821AC1EDFF
:10334000011AD1ED001A91ED022A31EEC22AD1ED17
:10335000021ADFED522A42EE821AC1ED021A00E093
:1033600019E0D1ED011A91ED032A31EEC22AD1ED17
:10337000031ADFED4A2A42EE821AC1ED031AD1ED9B
:10338000021A4349C1ED031A4D49D1ED031A4049D0
:10339000C1ED041A38E0DFED4B1A21EE212AF7EED9
:1033A000002AC2EE821AB7EE002A71EE821AF7EEF8
:1033B000002A82EEA12A3649D1ED031ADFED422A16
:1033C00072EEE12AD1ED031A42EE221AC1ED031A80
:1033D000DFED3C1A21EE212AF7EE002AC2EE821A16
:1033E000B7EE002A71EE821AF7EE002A82EEA12AC9
:1033F000D1ED041ADFED342A72EEE12AD1ED041A80
:1034000042EE221AC1ED041A704701B526488078B1
:10341000012811D12D4890ED381AF0EE410A90EDB7
:10342000371AB0EE410A6846FFF7C1FE2848818886
:103430006846FFF727FE02E001201549087008BD25
:1034400019B3134A92ED090ADFED140A20EE200A9F
:10345000D2ED050A9FED1F1A01EE200AD2ED070AF0
:103460009FED0E1A01EE200A82ED0B0A92ED0A0A78
:10347000DFED0A0A20EE200AD2ED060A9FED151AAA
:1034800001EE200AD2ED080A26E02CE09800002088
:10349000881100209C0000200AD7233CCDCC4C3E54
:1034A000920000206F12833A083100209000002023
:1034B0009A9919C0781200205C0E0020F8110020A3
:1034C000BC1100209CC4A03F00000000FC000020B4
:1034D000BA020020CDCC4C3F1FED101A01EE200A9D
:1034E00082ED0C0A06E01FED080A034A82ED0C0A81
:1034F00082ED0B0A7047000088110020B1F5FA7FB9
:1035000006DA00EE101AB8EEC00AFC4A82ED000A94
:10351000FB4A92ED030AFB4A82ED000AF74A92ED5C
:10352000000ADFEDF90A20EE200AF54AD2ED020A80
:1035300020EE200A82ED030A02784FF47A7393FB9F
:10354000F2F200EE102AB8EEC00AED4AD2ED030AFC
:10355000EC4A92ED001A70EEC10A20EE200AE84A09
:1035600082ED040A7047B0EE601A017801EE901AFD
:10357000F8EE611A9FEDE52A61EE821AF0EE610A1B
:10358000E349097B29B10021DD4A1170E14A11802C
:103590000EE0E0490988B1F57A7F06DA0178DD4A64
:1035A00012881144DB4A118002E00121D44A1170D3
:1035B000D749098A494209B2D14A5180D449097B85
:1035C000F1B1DFEDD51A60EE211AFDEEE11A11EE30
:1035D000901A09B291801146B1F9041011F1500FFF
:1035E00002DC6FF04F0109E0C549B1F90410502920
:1035F00001DD502102E0C249B1F90410C04A9180B6
:10360000BF49097859BBBE49B1F90210BC4AB2F9A9
:103610000420891A01EE901AF8EEE11ABF4991EDE3
:10362000002A31EEC22AD1ED001ADFEDBD2A42EEAA
:10363000821AC1ED001AD1ED001A91ED012A31EE86
:10364000C22AD1ED011ADFEDB62A42EE821AC1ED8F
:10365000011AD1ED011AAA49C1ED021A1CE0DFEDF1
:10366000B11A60EEA11AB7EE002AC2EE212AF7EED7
:10367000001A72EEA11AF7EE002A82EEA12AA049E2
:10368000D1ED021ADFEDA82A72EEE12AD1ED021A7D
:1036900042EE221AC1ED021A704701B59C488078AB
:1036A000022811D1A14890ED381AF0EE410A90EDB0
:1036B000371AB0EE410A6846FFF755FF9C488188EB
:1036C0006846FFF71BFF02E001208D49087008BD26
:1036D0009849097804297ED007DC79B1012921D0E5
:1036E000022941D003296BD157E0052969D00C2963
:1036F00068D00D2967D01429F5D1EEE09FED8A0A34
:103700007F4981ED070A9FED880A81ED050A9FED4B
:10371000860A81ED060A0021874A11800121854A27
:1037200011702EE10021854A11707949097B012928
:1037300005D1B3EE0E0A724981ED050A13E0744912
:10374000097B022902D17B4A11700CE07049097B88
:10375000032902D1774A117005E06D49097B11B93F
:103760000021744A11700CE16949097B022903D0D8
:103770000121704A11700FE0704909780A2905DAB1
:103780006E490978491C6D4A117005E000216B4AA9
:1037900011700421674A1170F3E05D49097B032928
:1037A00003D00121634A117014E0644909780A29A1
:1037B0000ADA62490978491C604A11700AE00AE095
:1037C000DEE024E03FE063E000215C4A1170052167
:1037D000584A1170D5E0B3EE0E0A494981ED050A49
:1037E0009FED510A81ED060A53490988B1F5487FDA
:1037F00006DA0178504A128811444F4A118005E0D8
:1038000000214D4A11800C214A4A1170B9E0B3EEF3
:103810000E0A3B4981ED050A9FED430A81ED060A38
:1038200045490988B1F5487F06DA0178424A12888D
:103830001144414A118005E000213F4A11800D21C9
:103840003C4A11709DE0B3EE040A2D4981ED050A52
:103850009FED350A81ED060A9FED390A81ED070AD1
:1038600035490988B1F57A7F06DA0178324A12883B
:103870001144314A11800AE09FED2B0A204981ED65
:10388000070A00212C4A118014212A4A117078E07D
:10389000B3EE040A1A4981ED050A9FED230A81ED72
:1038A000060A9FED280A81ED070A23490988B1F528
:1038B0007A7F06DA0178204A128811441E4A118064
:1038C0000AE09FED190A0E4981ED070A00211A4A04
:1038D00011801421174A117053E00178164A12889A
:1038E0001144154A11801146098864292CDA01789F
:1038F00012881144104A118041E00000B4000020F9
:10390000CC110020B80000200AD7233C6F12833A64
:1039100008310020A40000209A9919C0A8000020B6
:10392000CDCC4C3E9CC4A03F00000000FC00002019
:10393000BA020020B0000020BE000020BC00002021
:103940000000B4C20000B4423F490988B1F5167FB7
:103950000FDA01783C4A128811443B4A1180B3EED9
:103960000E0A3A4981ED050A1FED110A81ED060A9A
:1039700005E00021344A11800121354A117000E030
:1039800000BF00BF704710B504460B46CBB32F48AD
:1039900090ED030ADFED2F0A20EE200AD0ED040A95
:1039A0009FED2D1A01EE200A80ED060A2B48007BC0
:1039B00001282ED12948B0F90E00404200EB40000A
:1039C000400000EE100AB8EEC00A204880ED070A59
:1039D00090ED070ADFED220AB4EEE00AF1EE10FAEC
:1039E00002D89FED1F0A10E0184890ED070ADFED9E
:1039F0001D0AB4EEE00AF1EE10FA03DD9FED190A9C
:103A000003E00FE0114890ED070A104880ED070A27
:103A100004E01FED3B0A0D4880ED070A2046FFF742
:103A200057FE0FE01FED400A084880ED050A1FED24
:103A3000420A80ED060A1FED440A80ED070A0020C5
:103A40000349087010BD0000BE000020CC1100200A
:103A5000B0000020CDCC4C3FCDCC4C3D08310020F7
:103A60000000C8C20000C84290ED002ADFEDFC2A29
:103A700022EE222AF7EE002A82EE823AB7EE002AE0
:103A800033EE022AB7EE003AC3EE022AF54991ED71
:103A9000002A30EE423A91ED002A02EE832A81EDAF
:103AA000002A90ED002ADFEDEE2A22EE222AF7EE20
:103AB000002A82EE823AB7EE002A33EE022AB7EEEF
:103AC000003AC3EE022A91ED012A30EEC23A91ED9E
:103AD000012A02EE832A81ED012A91ED002ADFED11
:103AE000E22A22EE222AE14981ED002ADD4991ED08
:103AF000012ADFEDDD2A22EE222ADC4981ED012AAE
:103B000090ED002ADFEDD62A62EE222AB7EE003AC7
:103B100083EE222AF7EE002A32EE222AB7EE003A8E
:103B2000C3EE022AD24991ED082A31EE423A91EDD4
:103B3000082A02EE832A81ED082A90ED002ADFEDA3
:103B4000C82A22EE222AB7EE003AC3EE022AB7EEC6
:103B5000002A32EE822AB7EE003AC3EE022A91ED35
:103B6000092A31EEC23A91ED092A02EE832A81ED4B
:103B7000092A002117E0BE4A283202EB810292EDA9
:103B8000002ABB4A203202EB8102D2ED002A90EDDE
:103B9000003A02EE832AB64A283202EB810282ED15
:103BA000002A4A1CD1B20229E5DB704710B5024653
:103BB0000023B0480078B04C2478A0423FD0AE48F3
:103BC0000078AC4C20708B78032003E00C5C6340E1
:103BD000441CE0B20C28F9DB087B984226D1A748A8
:103BE0000078401CA54C2070887A20722046007A0C
:103BF000F52803D00020A08060800DE008794C7982
:103C000040EA042000B29D4C60808878CC7840EA7D
:103C1000042000B2994CA0808879CC7940EA042035
:103C20004FF47A7490FBF4F0944CE0809FED940A8A
:103C3000944880ED000A0120904C607015E0914896
:103C400090ED000AF7EE000AB4EEE00AF1EE10FA89
:103C500008D292ED000AD0ED000A30EE200A80ED85
:103C6000000A02E00020854C607010BD10B52DEDFB
:103C7000020B85496846FFF799FF844890ED142AA6
:103C8000F0EE421A90ED132AB0EE421A804890ED01
:103C90000B2AF0EE420A90ED0A2AB0EE420A68467C
:103CA000FFF7E2FE1CBD002010E09FED750A704991
:103CB000283101EB800181ED000A9FED710A754901
:103CC00001EB800181ED000A411CC8B20228ECDB47
:103CD000704770B52DED028B05460C46287800EE36
:103CE000100AB8EE400ADFED6C0A20EE200AB0EEB2
:103CF000408A142C01DC142006E0B4F5FA7F02DDC2
:103D00004FF4FA7000E0204600EE100AB8EEC00A48
:103D1000574880ED010A90ED020ADFED600A20EEBF
:103D2000200AD0ED010A20EE200A80ED040A90ED71
:103D3000030ADFED5A0A20EE200AD0ED010A20EE38
:103D4000200A80ED050A00F1180250493431103084
:103D500000F0C1FD4648007810B101287DD10FE088
:103D6000012043490870B0EE000A4D4880ED000A7A
:103D7000B7EE000A4B4880ED000AFFF794FFAFE072
:103D80003E48007AF52869D100209CE03849183176
:103D900001EB800191ED000A3549283101EB8001EA
:103DA000D1ED000A30EE600A3F4901EB800181ED60
:103DB000000A384901EB800191ED000A3A4901EB14
:103DC0008001D1ED000A374991ED001A60EE810AB9
:103DD00000EE880A2F4901EB800181ED000A2D4990
:103DE00001EB800191ED000ADFED300AB4EEE00A4C
:103DF000F1EE10FA02D89FED2D0A13E0254901EBF0
:103E0000800191ED000ADFED2A0AB4EEE00AF1EE3E
:103E100010FA02DD9FED260A04E01E4901EB800145
:103E200091ED000A1B4901EB800181ED000A19495F
:103E300001EB800191ED000A1B4901EB8001D1EDFE
:103E4000000A174991ED001A00EE810A084928314D
:103E500001EB8001D1ED000A2CE03EE036E00000ED
:103E60003433FB41DC000020E12E6542C400002019
:103E7000F8110020C000002097040020EC11002061
:103E800000000000E400002098310020FC00002029
:103E900060130020D40000206F12833A82A8FB3800
:103EA000E8000020EC000020CC0000200000C8C288
:103EB0000000C84240EE080A534901EB8001C1ED01
:103EC000000A411CC8B20228FFF660AF4E4A083211
:103ED0004E494D4800F0E0FC02E0FFF7E4FE00BF71
:103EE00000BFBDEC028B70BD01464948007AF52841
:103EF00012D01FED1D0A4448283880ED030A80EDDA
:103F0000020A4078052843DB3F4828384078401FA4
:103F10003D4A283A50703BE03D48C0884FF47A72E1
:103F200092FBF0F03A4AB2F90220504300EE100A38
:103F3000B8EEC00A3748D0ED010A9FED371A01EEFE
:103F4000200A3148283880ED020A3148C0884FF4F1
:103F50007A7292FBF0F02E4AB2F90420504300EE40
:103F6000100AB8EEC00A2B48D0ED000A9FED2A1ABD
:103F700001EE600A2448283880ED030A4078FA28C8
:103F800006DC214828384078401D1F4A283A5070E6
:103F900070472248007C48B11B4828380078012827
:103FA00017D1002018492839087012E0164828381F
:103FB0004078642804DA002013492839087008E0A2
:103FC000114828384078C82803DD01200E492839D7
:103FD00008700F48407830B11148007818B10120BE
:103FE0001049087202E000200E490872704701B5BE
:103FF000FFF7CFFF6846FFF777FF0B480188684659
:10400000FFF767FE08BD00002012002030010020ED
:10401000EC110020C4000020000020431802002002
:104020008C040020781200208E0400200748C07AFB
:1040300008B9012000E000200549087001204870FF
:10404000704710B506F05FFA10BD0000491200205D
:10405000D203002090ED031AB5EEC01AF1EE10FA6B
:1040600020DD90ED051AD0ED031AF1EE611AB4EEE1
:10407000E11AF1EE10FA04D890ED031AB1EE411AEC
:104080000DE090ED051AD0ED031AB4EEE11AF1EE51
:1040900010FA02DD90ED031A01E090ED051AF0EE42
:1040A000410A01E0D0ED050A90ED001A31EE201A28
:1040B00080ED061A90ED011AD0ED061A31EE611A64
:1040C000D0ED021A21EE211A80ED041A90ED051AA6
:1040D000D0ED041A01EE801A80ED051A7047D0ED7C
:1040E000000A90ED041A30EE811AD0ED050A41EE77
:1040F000000AC0ED050AD0ED010A90ED051A70EE38
:10410000C10A90ED021A60EE810AC0ED040AD0EDFA
:10411000030AF5EEC00AF1EE10FA1FDDD0ED040A35
:1041200090ED031AB1EE411AF4EEC10AF1EE10FA65
:1041300004D8D0ED030AF1EE600A0DE0D0ED040AD8
:1041400090ED031AF4EEC10AF1EE10FA02DDD0EDA3
:10415000030A01E0D0ED040AC0ED040A7047F0EE56
:10416000401A9FEDFC2A20EE822A22EE212AB7EE89
:10417000003AC3EE022AB7EE002A32EE822AB7EEE8
:10418000003AC3EE022A90ED002A31EE423A90ED59
:10419000002A02EE832A80ED002AB5EEC01AF1EE65
:1041A00010FA02DDB0EE412A01E0B1EE412AB0EE94
:1041B000420A90ED002AF1EE402AB4EEE22AF1EE36
:1041C00010FA02D8B1EE402A0BE090ED002AB4EECE
:1041D000C02AF1EE10FA02DDB0EE402A01E090EDC7
:1041E000002A80ED012A7047F0EE401A9FEDD92A8F
:1041F00020EE822A22EE212AB7EE003AC3EE022AEE
:10420000B7EE002A32EE822AB7EE003AC3EE022A57
:1042100090ED002A31EE423A90ED002A02EE832A18
:1042200080ED002A90ED002AB5EEC02AF1EE10FADA
:1042300002DD90ED002A03E090ED002AB1EE422A63
:10424000B0EE420AB1EE402AB4EEC21AF1EE10FA14
:1042500002D8B1EE402A09E0B4EEC01AF1EE10FA2D
:1042600002DDB0EE402A01E0B0EE412A80ED012AE5
:104270007047F0EE401A9FEDB72A20EE822A22EE18
:10428000212AB7EE003AC3EE022AB7EE002A32EE38
:10429000822AB7EE003AC3EE022A90ED002A31EEF0
:1042A000423A90ED002A02EE832A80ED002AB5EE14
:1042B000C01AF1EE10FA02DDB0EE412A01E0B1EED3
:1042C000412AB0EE420A90ED002AF1EE402AB4EE07
:1042D000E22AF1EE10FA02D8B1EE402A0BE090ED9E
:1042E000002AB4EEC02AF1EE10FA02DDB0EE402A48
:1042F00001E090ED002A80ED002A80ED012A704750
:104300002DE9F84F04460D46DDF828804FF00109ED
:104310004FF0000A0126B346CDF800B00127DFEDCB
:104320008E0AB0EE600A00208446D2F808B0C2F8C7
:104330000CB092F800B00BF1010B0BF0FF0B82F800
:1043400000B0AB4502DB834682F800B092F800B0C3
:1043500044F82B80D2F80CB0A8EB0B0B00EE90BA0F
:10436000B8EEE01A00EE903AF8EE600AC1EE201ABC
:10437000B0EE610AB5EEC00AF1EE10FA02DDF0EE21
:10438000400A01E0F1EE400AB7EE001AF4EEC10A6D
:10439000F1EE10FA2BD2B5EEC00AF1EE10FA02DD02
:1043A000B0EE401A01E0B1EE401A00EE903AF8EE9D
:1043B000600A61EE200AB0EE001AF4EEC10AF1EED6
:1043C00010FA04D2DFED640AB0EE600A0FE0B5EE39
:1043D000C00AF1EE10FA02DD4FF0010B01E04FF0E0
:1043E000FF3B00EE90BAF8EEE00AB0EE600AD0684B
:1043F00000BF00210DE054F821B0ABEB000B54F8E6
:1044000021E0AEEB000E0BFB0ECC01F1010B0FFA1D
:104410008BF1A942EFDBD2F804B0ACEB0B0BBBF194
:10442000000F11DDB9F1000F03D14FF0000BCDF8F3
:1044300000B04FF00109012F02D14FF0FF3B01E026
:104440004FF0010B5F4607E04FF000099E4203DA90
:1044500006F1010B0BF0FF06C2F804C04FF0000C90
:1044600000EE900AB8EEE01A00EE907AF8EEE00A5C
:1044700000EE801AFDEEC10A10EE900A0AF1010B5F
:104480000BF0FF0BDA469B4502DDE346CDF800B0AA
:10449000022E03DB4FF0000BCDF800B0DDF800B0CA
:1044A000BBF1010FA5D09060D2E902BEABEB0E0BC1
:1044B000C2F810B0BDE8F88F70B505460C46167806
:1044C000761CF6B21670A64201DB0026167016782E
:1044D00005EB860686ED000A002009E005EB800664
:1044E00096ED001A03EB800686ED001A461CF0B22A
:1044F000A042F3DB002029E0002121E003EB81064C
:1045000096ED001A4E1C03EB8606D6ED001AB4EEAB
:10451000E11AF1EE10FA11DD4E1C03EB8606D6ED22
:10452000000A03EB810696ED001A4E1C03EB86068B
:1045300086ED001A03EB8106C6ED000A4E1CF1B2AF
:10454000661E361A8E42D9DC461CF0B2661E8642C2
:10455000D2DC70BDC3F5C8400000000030B50C4689
:1045600015886D1CADB21580A54201DB00251580B4
:10457000158800EB8505D5ED000A158800EB85054B
:1045800085ED000A70EE601A01EE104AB8EE412A7D
:1045900081EE821AD3ED001A31EE211A83ED001A52
:1045A00093ED001AD3ED001A70EE611ABFEE002AE7
:1045B000F4EEC21AF1EE10FA02D8FFEE001A11E082
:1045C000D3ED001A70EE611AB7EE002AF4EEC21AAB
:1045D000F1EE10FA02DDF7EE001A03E0D3ED001A57
:1045E00070EE611A9FEDA82A02EE211A83ED001ADF
:1045F00030BD5FED281A60EE211A21EEA02AF7EEF9
:10460000002AC2EE821AB7EE002A71EE821AF7EE85
:10461000002A82EEA12AD0ED001A71EE612AD0EDB7
:10462000001A42EE221AC0ED001A704770B52DED47
:104630000A8BB0EE408AF0EE608AB0EE419AF0EE5E
:10464000619A044694ED001BB0EE410AF0EE610A57
:1046500053EC102B51EC190B16F03CFA41EC1B0BF0
:104660001FED440A28EE000A20EE280AB7EE001AD1
:10467000C1EE000AB7EE000A30EE800AF7EE000A3B
:1046800080EE801A11EE105A284616F0E1FA41EC3D
:104690001C0B53EC1B2B16F023FA41EC1A0B94ED78
:1046A000001BB0EE410AF0EE610A53EC102B16F03D
:1046B00070F9C4E90001BDEC0A8B70BD90ED001AE1
:1046C00030EEC11AB4EEC01AF1EE10FA06DD90ED2C
:1046D000001A31EE001A80ED001A13E090ED001A76
:1046E00030EEC11AF1EE401AB4EEE11AF1EE10FA12
:1046F00006D290ED001A31EE401A80ED001A01E06A
:10470000C0ED000A7047B0EE402A1FED6E0A20EEA1
:10471000800A20EE020AB7EE003AC3EE002AB7EE96
:10472000000A32EE800AB7EE003AC3EE002A90ED9E
:10473000000A31EE403A90ED000A02EE830A80ED65
:10474000000A90ED000AF1EE612AB4EEE20AF1EE01
:1047500010FA02D8B1EE610A0BE090ED000AB4EE57
:10476000E10AF1EE10FA02DDB0EE610A01E090ED2F
:10477000000A80ED000A90ED000A31EE400A704711
:1047800070B504460D461646D4ED020A60EEA00A46
:1047900094ED011AD4ED011A41EE210AB0EE600A3F
:1047A00000F03CFF394880ED000AD4ED020A60EECB
:1047B000A00A94ED001AD4ED001A41EE210AB0EEE1
:1047C000600A00F02BFF324880ED000A94ED020AE7
:1047D000B5EEC00AF1EE10FA02D24FF0FF3000E061
:1047E00001202C49087095ED000A2848D0ED000AF8
:1047F00060EE200A94ED001A084690F9000000EEE1
:10480000100AB8EEC00A21EE000A95ED021A40EE39
:10481000410AC6ED000A084690F9000000EE100AB1
:10482000B8EEC00A1A48D0ED000A20EE200AD5EDF5
:10483000010A20EE200AD4ED010A95ED021A00EEDD
:10484000C10A86ED010A94ED000AD5ED000A20EEBA
:10485000200AD4ED010A95ED011A00EE810AD4ED8B
:10486000020A95ED021A00EE810A86ED020A70BD79
:1048700070B504460D461646324629462046FFF7D7
:104880007FFF70BD70470000ACC52737F4000020E3
:10489000F8000020F000002090ED000AD1ED000AA1
:1048A00020EE200AD0ED010A91ED011A00EE810AF6
:1048B00082ED000A90ED000AD1ED010AF1EE600AE6
:1048C00020EE200AD0ED010A91ED001A00EE810AD7
:1048D00082ED010A704790ED000AD1ED000A20EE4A
:1048E000200AD0ED010A91ED011AB1EE411A00EE55
:1048F000810A82ED000A90ED000AD1ED010A20EE56
:10490000200AD0ED010A91ED001A00EE810A82ED35
:10491000010A704730B502460B46002022E0DFED69
:10492000FE0AB0EE600A002114E000EB4004FB4DEB
:1049300005EB840404EB810494ED001A02EB81047E
:10494000D4ED001AF0EE400A41EE810AB0EE600AA2
:104950004C1CE1B20329E8DB03EB800181ED000A86
:10496000411CC8B20328DADB30BD2DE9F0412DED42
:10497000068B86B0F0EE409A0546884617461E46DE
:10498000129C94ED000AD4ED010A20EE200AE448BE
:1049900080ED000A94ED000AD4ED020A20EE200A10
:1049A000E04880ED000A94ED010A20EE000ADE489E
:1049B00080ED000A94ED010AD4ED030A20EE200AEE
:1049C000DA4880ED000A94ED020A20EE000AD84889
:1049D00080ED000A94ED020AD4ED030A20EE200ACD
:1049E000D44880ED000A94ED030A20EE000AD24874
:1049F00080ED000A94ED010AD4ED020A20EE200AAF
:104A0000CE4880ED000A94ED000AD4ED030A20EEB2
:104A1000200ACB4880ED000A287DE8B300203DE065
:104A2000002100EE101A00BF18E001EB4102BB4B61
:104A300003EB820202EB800292ED001A04F17C0289
:104A400002EB8102D2ED001AF8EEC00A41EE810AB3
:104A5000FDEEE00AB0EE600A4A1CD1B20329E4DBA5
:104A6000F8EEC00A04F1880101EB8001C1ED000AF3
:104A700007EB8001D1ED000A04F1880101EB800110
:104A800091ED001A70EEC10A04F1940101EB80016E
:104A9000C1ED000A411C00E003E0C8B20328BFDBFF
:104AA0000FE000200BE007EB800191ED000A04F11C
:104AB000940101EB800181ED000A411CC8B203287A
:104AC000F1DBD4ED250A60EEA00A94ED261AD4EDB0
:104AD000261A41EE210A94ED271AD4ED271A41EE49
:104AE000210AB0EE600A00F073FDF0EE408AF5EEA8
:104AF000C08AF1EE10FA02D19FED870A03E0F7EECB
:104B0000000A80EEA80AB0EE40AA00200EE004F1F0
:104B1000940101EB800191ED000A20EE280A03A91F
:104B200001EB800181ED000A411CC8B20328EEDBD5
:104B30007F4890ED000AF0EE000A20EE200A7E4841
:104B4000D0ED000AB0EE001A01EE200AF7EE000ADE
:104B500030EEC00A84ED040A704880ED000A774800
:104B600090ED000AF0EE000A20EE200A7448D0ED25
:104B7000000AB0EE001A01EE600A84ED050A6748EB
:104B800080ED010A694890ED000AF0EE000A20EE7F
:104B9000200A6448D0ED000AB0EE001A01EE200AA7
:104BA00084ED060A5D4880ED020A644890ED000A33
:104BB000F0EE000A20EE200A6148D0ED000AB0EEC7
:104BC000001A01EE200A84ED070A544880ED030A1A
:104BD000554890ED000AF0EE000A20EE200A5648F3
:104BE000D0ED000AB0EE001A01EE200AF7EE000A3E
:104BF00030EEC00A84ED080A484880ED040A4D48AA
:104C000090ED000AF0EE000A20EE200A4448D0EDB4
:104C1000000AB0EE001A01EE600A84ED090A3F486E
:104C200080ED050A414890ED000AF0EE000A20EE02
:104C3000200A3C48D0ED000AB0EE001A01EE600AEE
:104C400084ED0A0A354880ED060A3A4890ED000ADC
:104C5000F0EE000A20EE200A3148D0ED000AB0EE56
:104C6000001A01EE200A84ED0B0A2C4880ED070A99
:104C70002D4890ED000AF0EE000A20EE200A2C48A4
:104C8000D0ED000AB0EE001A01EE200AF7EE000A9D
:104C900030EEC00A84ED0C0A204880ED080AD0ED01
:104CA000000A60EEA00A90ED031AD0ED031A41EE5F
:104CB000210AB0EE600A00F08BFCB0EE409A174873
:104CC00090ED000A20EE090A84ED0D0A90ED030A2A
:104CD00020EE090A84ED0E0A002019E007EB80019E
:104CE00091ED000A04F1280101EB8001D1ED000AE9
:104CF0009FED141A01EE600ABDEEC00AB8EEC00ABC
:104D000004F1400101EB800181ED000A411CC8B2B1
:104D10000328E3DB002041E00000000084120020B3
:104D2000E4010020E8010020EC010020F001002057
:104D3000F4010020F8010020FC0100200002002006
:104D40000402002000407544002100EE101A00BF4C
:104D500018E000EB4002F84B03EB820202EB810209
:104D600092ED001A04F1400202EB8102D2ED001A2A
:104D7000F8EEC00A41EE810AFDEEE00AB0EE600AEC
:104D80004A1CD1B20329E4DBF8EEC00A04F14C015D
:104D900001EB8001C1ED000A411CC8B20328D3DB3E
:104DA00004F15802E54904F14C00FFF775FD9DED53
:104DB000040AD4ED0C0A20EE200AD4ED0B0A9DED76
:104DC000051A00EEC10ADE4880ED000A9DED030AD7
:104DD000D4ED0C0A20EE200AD4ED0A0A9DED051A46
:104DE00010EE810A80ED010A9DED040AD4ED0A0A55
:104DF00020EE200AD4ED0B0A9DED031A10EE810A75
:104E000080ED020A00200CE036F9101000EE101AB6
:104E1000B8EEC00ACB4901EB800181ED000A411CCC
:104E2000C8B20328F0DB308818B9708808B9B08898
:104E3000E8B304F16401C348FFF76CFDD4ED190A2F
:104E400060EEA00A94ED1A1AD4ED1A1A41EE210A66
:104E5000B0EE600A00F0BCFBF0EE40AA94ED190A37
:104E600020EE2A0AB84880ED020A94ED1A0A20EED4
:104E70002A0A80ED030A0146083000F0B1FEB3486B
:104E800080ED000AB04901F1080000F0B6FEB0481C
:104E900080ED000A90ED000AB5EEC00AF1EE10FABE
:104EA00026D2AA4890ED000ADFEDAA0A00E020E031
:104EB000B4EEE00AF1EE10FA01DD01200DE0A348A6
:104EC00090ED000ADFEDA40AB4EEE00AF1EE10FA6C
:104ED00002D24FF0FF3000E0002000EE100AB8EEE2
:104EE000C00AF7EE000A20EE200A984880ED000A7A
:104EF00000BF00207CE09FED990AB4EEC0AAF1EE5D
:104F000010FA06DC9FED960AB4EEC0AAF1EE10FA94
:104F100008D21FED7F0A8A4981ED020A81ED010A5C
:104F200081ED000A8F4901EB800191ED000A84496F
:104F300001EB8001D1ED000A9FED8B1AF4EEC10A5E
:104F4000F1EE10FA02D8DFED880A13E07C4901EB9C
:104F50008001D1ED000A9FED851AF4EEC10AF1EE51
:104F600010FA02DDDFED810A04E0754901EB8001F2
:104F7000D1ED000A60EEA90A7D4991ED001A00EE1C
:104F8000810A784901EB800181ED000A6C4901EB4F
:104F9000800191ED000A734901EB8001D1ED000A17
:104FA00070EE200A08EB800191ED000A714991ED45
:104FB000001A00EE810A04F1280101EB8001D1ED15
:104FC000000A624991ED001A60EE810A6A4991ED8A
:104FD000001A00EE810A20EE290AF0EE000A80EEA7
:104FE000201A694601EB800181ED001A411CC8B20C
:104FF000032880DB94ED000AD4ED010A9DED001A30
:1050000000EEC10AD4ED020A9DED011A00EEC10ABC
:10501000D4ED030A9DED021A00EEC10A84ED000AE8
:1050200094ED010AD4ED000A9DED001A00EE810A0C
:10503000D4ED020A9DED021A00EE810AD4ED030AB6
:105040009DED011A00EEC10A84ED010A94ED000AFB
:10505000DDED010A20EE200AD4ED010A9DED021AD1
:1050600000EEC10AD4ED020A30EE200AD4ED030AA4
:105070009DED001A00EE810A84ED020A94ED000A0B
:10508000DDED020A20EE200AD4ED010A9DED011AA1
:1050900000EE810AD4ED020A9DED001A00EEC10A6D
:1050A000D4ED030A30EE200A84ED030AD4ED000AA1
:1050B00060EEA00A94ED011AD4ED011A41EE210A26
:1050C00094ED021AD4ED021A41EE210A94ED031A6E
:1050D000D4ED031A41EE210AB0EE600A00F078FA2E
:1050E000B0EE408AD4ED000AB0EE480A20EE800A05
:1050F00084ED000AD4ED010AB0EE480A20EE800AE1
:1051000084ED010AD4ED020AB0EE480A20EE800ACE
:1051100084ED020AD4ED030AB0EE480A20EE800ABC
:1051200084ED030AE87C58BB9FED140A124880ED19
:10513000000A0020687451E0841200203001002031
:10514000A8120020C0120020300200200802002017
:105150000C020020BD378635BD3786B500808444FB
:1051600000006144B4120020CDCCCCBDCDCCCC3DF0
:105170004C020020480200205002002000000000E5
:10518000FFE7687C28B3B2EE040A9D4880ED000A70
:105190009C4890ED000AB5EEC00AF1EE10FA1DD061
:1051A00090ED000AB5EEC00AF1EE10FA02DD90EDC6
:1051B000000A04E0934890ED000AB1EE400ADFEDEA
:1051C000920AB4EEE00AF1EE10FA07D200206874F9
:1051D00004E095ED020A8A4880ED000AA87C28B90F
:1051E0001FED1A0A894880ED000A77E0287C50B943
:1051F00095ED000A854880ED000A95ED010A844886
:1052000080ED000A6AE0B2EE040A804880ED000AF0
:105210001FED260A7E4880ED000A7E4890ED000AC8
:10522000B5EEC00AF1EE10FA02DD90ED000A04E0DE
:10523000784890ED000AB1EE400A7648D0ED010AB8
:10524000F5EEC00AF1EE10FA02DDD0ED010A04E03D
:105250007048D0ED010AF1EE600A30EE200A6E4887
:1052600080ED000A90ED000AB5EEC00AF1EE10FAEA
:1052700002D81FED3E0A0FE0674890ED000AF7EEF6
:10528000000AB4EEE00AF1EE10FA02DDB7EE000A11
:1052900002E0614890ED000A5F4880ED000A90ED61
:1052A000000ADFED5E0AB4EEE00AF1EE10FA12D267
:1052B000687C80B95A48007868B15A480088801CD8
:1052C0005849088008460088B0F5C87F06DD0020F0
:1052D0000880287402E000205249088006B0BDEC26
:1052E000068BBDE8F08110B52DED028B4E48D0ED58
:1052F000060A90ED061AB7EE000A00EEC10AB5EEF6
:10530000C00AF1EE10FA02D81FED640A1BE046480D
:10531000D0ED060A90ED061AB7EE000A00EEC10ABB
:10532000F7EE000AB4EEE00AF1EE10FA02DDB7EE95
:10533000000A08E03C48D0ED060A90ED061AB7EEE8
:10534000000A00EEC10A394880ED000A384890EDA5
:105350000C0AB5EEC00AF1EE10FA02DD90ED0C0A6F
:1053600004E0334890ED0C0AB1EE400ADFED310A5B
:10537000B4EEE00AF1EE10FA3FDD2C4890ED000AA1
:1053800000F04CF9B0EE408A2748D0ED060AB0EEA6
:10539000600AF0EE480A00F060F8DFED270A20EE20
:1053A000200A234880ED380A1F4890ED081AF0EED5
:1053B000410A90ED071AB0EE410A00F04EF8DFED19
:1053C0001E0A20EE200A1A4880ED370A164890ED92
:1053D000001AF0EE410A90ED031AB0EE410A00F017
:1053E0003CF8F1EE400A154890ED000A9FED121AC4
:1053F00000EE810A0E4880ED390ABDEC028B10BD2B
:1054000050020020080200200AD7233C4802002056
:105410004C020020A8120020100200200AD7A33C52
:105420007832002014020020841200204002002064
:10543000FC000020CDCC4C3D3333654244020020BB
:10544000F0EE400AF5EEC00AF1EE10FA02DBB0EE23
:10545000600A7047B1EE600AFBE700B5B0EE403A73
:10546000B0EE602AB5EEC03AF1EE10FA07D1B5EE13
:10547000C02AF1EE10FA02D19FEDFC1A99E0B0EECD
:10548000430AFFF7DDFFF0EE403AB0EE420AFFF7C5
:10549000D7FFF0EE402AF4EEE23AF1EE10FA02D233
:1054A00083EEA24A01E082EEA34A9FEDF10AB4EE38
:1054B000C04AF1EE10FA02D2F0EE441A2DE0DFED10
:1054C000ED0AB6EE000A14EE200AF0EE404ABDEEF8
:1054D000E40A10EE100A00EE100AB8EEC00A34EE2C
:1054E000C00AF0EE404AE44901EB800191ED000A68
:1054F000F0EE401AE04A411C02EB810191ED000AF6
:10550000114601EB8001D1ED000A70EE600AB0EEA9
:10551000610A00EEA40AF0EE401AF4EEE32AF1EE7E
:1055200010FA20DDB5EEC02AF1EE10FA0ADBB5EE76
:10553000C03AF1EE10FA02DBB0EE611A39E0B1EEDA
:10554000611A36E09FEDCD1AB5EEC03AF1EE10FAD1
:1055500004DB31EE610AB0EE401A2AE031EEC10AF6
:10556000B0EE401A25E0B5EEC03AF1EE10FA10DBCD
:105570009FEDC31AB5EEC02AF1EE10FA04DB31EE4E
:10558000610AB0EE401A14E031EE210AB0EE401A82
:105590000FE09FEDBC1AB5EEC02AF1EE10FA04DB65
:1055A00031EE210AB0EE401A03E031EE610AB0EEAE
:1055B000401AB0EE410A00BD00B5B0EE405AF0EE20
:1055C000605AF0EE450AB0EE650AFFF746FF00BDEF
:1055D000F0EE400AF6EE001A60EEA11AB0EE611A83
:1055E000B0EE600A10EE100AA749A1EB600000EED1
:1055F000100A21EE002AF7EE081A42EE401A61EE78
:10560000801AB0EE610A21EE002AF7EE081A42EE87
:10561000401A61EE801AB0EE610A704700B5F0EEF4
:10562000402AB0EE620AFFF7D3FF20EE220A00BD47
:1056300010B52DED0A8BB0EE409AF0EE609A9FED1A
:10564000930B53EC102B51EC190B15F015FB18D2E2
:105650009FED900B53EC102B51EC190B15F040FA09
:1056600041EC1B0B9FED8D0B53EC102B15F091F9BA
:1056700041EC1A0B53EC192B15F032FA41EC180BD4
:1056800017E09FED840B53EC102B51EC190B15F028
:1056900027FA41EC1B0B9FED810B53EC102B15F0FF
:1056A0001CFA41EC1A0B53EC192B15F019FA41ECCA
:1056B000180B9FED760B53EC102B51EC180B15F0DB
:1056C000DBFA20D29FED770B53EC102B51EC180B2B
:1056D00015F05FF941EC1C0B9FED740B53EC102B94
:1056E00015F0FEF941EC1B0B9FED6E0B53EC102BEC
:1056F00015F04FF941EC1A0B53EC182B15F0F0F99B
:1057000041EC180B1FE09FED670B53EC102B51EC95
:10571000180B15F0DFF941EC1C0B9FED660B53ECF9
:10572000102B15F0DDF941EC1B0B9FED5E0B53ECDC
:10573000102B15F02EF941EC1A0B53EC182B15F029
:10574000CFF941EC180BB0EE480AF0EE680ABDEC58
:105750000A8B10BD10B52DED068BB0EE408AF0EE31
:10576000608A01249FED550B53EC102B51EC180B64
:1057700015F09AFA0AD89FED510B53EC102B51EC0F
:10578000180B15F0A7F941EC180BA41E204615F0D4
:105790002FFA41EC190BB0EE480AF0EE680AFFF759
:1057A00047FFB0EE40AAF0EE60AA53EC192B51EC83
:1057B0001A0B15F095F941EC100BBDEC068B10BDE2
:1057C00010B52DED088BB0EE408AF0EE608A012412
:1057D0009FED3C0B53EC102B51EC180B15F0D9F846
:1057E00041EC180B9FED350B53EC102B51EC180BC3
:1057F00015F05AFA0AD8A41E9FED300B53EC102B6B
:1058000051EC180B15F066F941EC180B204615F019
:10581000EFF941EC1A0BB0EE480AF0EE680AFFF718
:1058200099FFB0EE40BAF0EE60BA53EC1A2B51EC8F
:105830001B0B15F055F941EC190B15F04DFA00EE64
:10584000100ABDEC088B10BDF0EE401AF4EEE01A21
:10585000F1EE10FA3ADD31EEC10AB4EEE00AF1EEF3
:1058600010FA3CD2B0EE600A39E0000000000000FF
:105870008180803B0000804320B10108DB0F49405C
:10588000DB0FC93FDB0FC9BFDF59375F00000000E6
:1058900000000000000000602FF0D93F0000006011
:1058A000305FF43F000000000000F03F000000C047
:1058B000CCCCCCBF000000C0CCCCCC3FF1D4C85382
:1058C000FB210940F1D4C853FB21F93F31EE810A95
:1058D000B4EEE00AF1EE10FA01DDB0EE600A7047B6
:1058E000F0EE401AB1EE412A32EE202AB4EEE12A5F
:1058F000F1EE10FA09D231EE202AB4EEE12AF1EEEF
:1059000010FA02DDB0EE600A01E0B0EE610A704705
:10591000F0EE402AB5EEC01AF1EE10FA02DDB0EE5C
:10592000410A01E0B1EE410AB6EE003A22EE033A36
:1059300023EE213AB4EEC30AF1EE10FA06D29FED3F
:10594000E90A20EE800AF0EE400A4DE0B5EEC01AFA
:10595000F1EE10FA02DDB0EE410A01E0B1EE410ACB
:1059600022EE213AB4EEC30AF1EE10FA06D29FED10
:10597000DE0A20EE800AF0EE400A35E0B5EEC01AED
:10598000F1EE10FA02DDB0EE410A01E0B1EE410A9B
:10599000B4EEE10AF1EE10FA06D2B6EE000A20EEFD
:1059A000800AF0EE400A1FE0B5EEC01AF1EE10FAE0
:1059B00002DDB0EE410A01E0B1EE410AB0EE003A7C
:1059C00021EE833AB4EEC30AF1EE10FA06D29FED4F
:1059D000C70A20EE800AF0EE400A05E09FEDC40AF7
:1059E00020EE800AF0EE400A9FEDC20A20EE800A07
:1059F00020EE223AF7EE003A83EE830AB7EE003A41
:105A000030EE030AF7EE003A83EE803A90ED000A9A
:105A100071EE403A90ED000A03EE230A80ED000A91
:105A200090ED000AB1EE423A23EE213AB4EEC30AF9
:105A3000F1EE10FA04D8B1EE420A20EE210A0DE090
:105A400090ED000A22EE213AB4EEC30AF1EE10FA0C
:105A500002DD22EE210A01E090ED000A80ED000A4D
:105A600090ED000A31EE400A704710B52DED028B23
:105A7000B0EE408AF0EE608A9FED9F0B53EC102B46
:105A800051EC180B15F010F90CD29FED9D0B53EC57
:105A9000102B51EC180B15F01DF841EC100BBDEC60
:105AA000028B10BD9FED980B53EC102B51EC180B93
:105AB00015F0E2F80AD29FED920B53EC102B51EC4B
:105AC000180B14F066FF41EC100BE8E7B0EE480A43
:105AD000F0EE680AE3E710B504460B46F0EE403AF4
